{
  "_format": "hh-sol-artifact-1",
  "contractName": "Prize",
  "sourceName": "contracts/Prize.sol",
  "abi": [
    {
      "anonymous": false,
      "inputs": [
        {
          "indexed": true,
          "internalType": "uint16",
          "name": "gameId",
          "type": "uint16"
        },
        {
          "indexed": true,
          "internalType": "address",
          "name": "player",
          "type": "address"
        },
        {
          "indexed": true,
          "internalType": "uint256",
          "name": "winnings",
          "type": "uint256"
        }
      ],
      "name": "Claim",
      "type": "event"
    },
    {
      "anonymous": false,
      "inputs": [
        {
          "indexed": true,
          "internalType": "uint16",
          "name": "gameId",
          "type": "uint16"
        },
        {
          "indexed": true,
          "internalType": "address",
          "name": "ender",
          "type": "address"
        },
        {
          "indexed": true,
          "internalType": "uint256",
          "name": "timestamp",
          "type": "uint256"
        }
      ],
      "name": "End",
      "type": "event"
    },
    {
      "anonymous": false,
      "inputs": [
        {
          "indexed": true,
          "internalType": "uint16",
          "name": "gameId",
          "type": "uint16"
        },
        {
          "indexed": true,
          "internalType": "address",
          "name": "player",
          "type": "address"
        },
        {
          "indexed": true,
          "internalType": "uint256",
          "name": "score",
          "type": "uint256"
        }
      ],
      "name": "GameHighScore",
      "type": "event"
    },
    {
      "anonymous": false,
      "inputs": [
        {
          "indexed": true,
          "internalType": "uint16",
          "name": "gameId",
          "type": "uint16"
        },
        {
          "indexed": true,
          "internalType": "address",
          "name": "player",
          "type": "address"
        },
        {
          "indexed": true,
          "internalType": "uint256",
          "name": "score",
          "type": "uint256"
        }
      ],
      "name": "PersonalHighScore",
      "type": "event"
    },
    {
      "anonymous": false,
      "inputs": [
        {
          "indexed": true,
          "internalType": "uint16",
          "name": "gameId",
          "type": "uint16"
        },
        {
          "indexed": false,
          "internalType": "address",
          "name": "player",
          "type": "address"
        }
      ],
      "name": "Play",
      "type": "event"
    },
    {
      "anonymous": false,
      "inputs": [
        {
          "indexed": true,
          "internalType": "uint16",
          "name": "gameId",
          "type": "uint16"
        },
        {
          "indexed": true,
          "internalType": "address",
          "name": "starter",
          "type": "address"
        },
        {
          "indexed": true,
          "internalType": "uint256",
          "name": "timestamp",
          "type": "uint256"
        }
      ],
      "name": "Start",
      "type": "event"
    },
    {
      "inputs": [],
      "name": "claim",
      "outputs": [],
      "stateMutability": "nonpayable",
      "type": "function"
    },
    {
      "inputs": [],
      "name": "duration",
      "outputs": [
        {
          "internalType": "uint256",
          "name": "",
          "type": "uint256"
        }
      ],
      "stateMutability": "view",
      "type": "function"
    },
    {
      "inputs": [],
      "name": "fee",
      "outputs": [
        {
          "internalType": "uint256",
          "name": "",
          "type": "uint256"
        }
      ],
      "stateMutability": "view",
      "type": "function"
    },
    {
      "inputs": [],
      "name": "gameId",
      "outputs": [
        {
          "internalType": "uint16",
          "name": "",
          "type": "uint16"
        }
      ],
      "stateMutability": "view",
      "type": "function"
    },
    {
      "inputs": [
        {
          "internalType": "address",
          "name": "",
          "type": "address"
        }
      ],
      "name": "highScores",
      "outputs": [
        {
          "internalType": "uint256",
          "name": "",
          "type": "uint256"
        }
      ],
      "stateMutability": "view",
      "type": "function"
    },
    {
      "inputs": [],
      "name": "highestScore",
      "outputs": [
        {
          "internalType": "uint256",
          "name": "",
          "type": "uint256"
        }
      ],
      "stateMutability": "view",
      "type": "function"
    },
    {
      "inputs": [],
      "name": "isOpen",
      "outputs": [
        {
          "internalType": "bool",
          "name": "",
          "type": "bool"
        }
      ],
      "stateMutability": "view",
      "type": "function"
    },
    {
      "inputs": [],
      "name": "play",
      "outputs": [],
      "stateMutability": "payable",
      "type": "function"
    },
    {
      "inputs": [],
      "name": "prizePool",
      "outputs": [
        {
          "internalType": "uint256",
          "name": "",
          "type": "uint256"
        }
      ],
      "stateMutability": "view",
      "type": "function"
    },
    {
      "inputs": [],
      "name": "startTime",
      "outputs": [
        {
          "internalType": "uint256",
          "name": "",
          "type": "uint256"
        }
      ],
      "stateMutability": "view",
      "type": "function"
    },
    {
      "inputs": [
        {
          "internalType": "uint256",
          "name": "score",
          "type": "uint256"
        }
      ],
      "name": "submitScore",
      "outputs": [],
      "stateMutability": "nonpayable",
      "type": "function"
    },
    {
      "inputs": [],
      "name": "winnerAddress",
      "outputs": [
        {
          "internalType": "address",
          "name": "",
          "type": "address"
        }
      ],
      "stateMutability": "view",
      "type": "function"
    }
  ],
  "bytecode": "0x6080604052607860005567016345785d8a00006003556001600660016101000a81548161ffff021916908361ffff16021790555034801561003f57600080fd5b50610ebe8061004f6000396000f3fe6080604052600436106100a65760003560e01c806393e84cd91161006457806393e84cd9146101ab578063aff0b297146101b5578063d7c81b55146101de578063ddca3f4314610209578063ea17386514610234578063ed7a4e0b1461025f576100a6565b8062d8e104146100ab5780630fb5a6b4146100e857806347535d7b146101135780634e71d92d1461013e578063719ce73e1461015557806378e9792514610180575b600080fd5b3480156100b757600080fd5b506100d260048036038101906100cd91906109ce565b61028a565b6040516100df9190610a14565b60405180910390f35b3480156100f457600080fd5b506100fd6102a2565b60405161010a9190610a14565b60405180910390f35b34801561011f57600080fd5b506101286102a8565b6040516101359190610a4a565b60405180910390f35b34801561014a57600080fd5b506101536102bb565b005b34801561016157600080fd5b5061016a6105a1565b6040516101779190610a14565b60405180910390f35b34801561018c57600080fd5b506101956105a7565b6040516101a29190610a14565b60405180910390f35b6101b36105ad565b005b3480156101c157600080fd5b506101dc60048036038101906101d79190610a91565b610733565b005b3480156101ea57600080fd5b506101f3610925565b6040516102009190610adb565b60405180910390f35b34801561021557600080fd5b5061021e610939565b60405161022b9190610a14565b60405180910390f35b34801561024057600080fd5b5061024961093f565b6040516102569190610a14565b60405180910390f35b34801561026b57600080fd5b50610274610945565b6040516102819190610b05565b60405180910390f35b60076020528060005260406000206000915090505481565b60005481565b600660009054906101000a900460ff1681565b6000546001546102cb9190610b4f565b421161030c576040517f08c379a000000000000000000000000000000000000000000000000000000000815260040161030390610be0565b60405180910390fd5b600460009054906101000a900473ffffffffffffffffffffffffffffffffffffffff1673ffffffffffffffffffffffffffffffffffffffff163373ffffffffffffffffffffffffffffffffffffffff161480610382575060005460026103729190610c00565b60015461037f9190610b4f565b42115b6103c1576040517f08c379a00000000000000000000000000000000000000000000000000000000081526004016103b890610cb4565b60405180910390fd5b60006005549050600060058190555060003373ffffffffffffffffffffffffffffffffffffffff16826040516103f690610d05565b60006040518083038185875af1925050503d8060008114610433576040519150601f19603f3d011682016040523d82523d6000602084013e610438565b606091505b505090508061047c576040517f08c379a000000000000000000000000000000000000000000000000000000000815260040161047390610d66565b60405180910390fd5b6005543373ffffffffffffffffffffffffffffffffffffffff16600660019054906101000a900461ffff1661ffff167fbd08c1a16d93e65de537d63adf0ce9151368887ca2db54a03b70920e06f22b4e60405160405180910390a460006001819055506000600660006101000a81548160ff02191690831515021790555060006002819055506000600460006101000a81548173ffffffffffffffffffffffffffffffffffffffff021916908373ffffffffffffffffffffffffffffffffffffffff160217905550423373ffffffffffffffffffffffffffffffffffffffff16600660019054906101000a900461ffff1661ffff167f4173506d88cf2c907a8676a20690e6f883bbbde96b0b2638d2dd36bdc53fe1e560405160405180910390a45050565b60055481565b60015481565b60006001541480156105cc5750600660009054906101000a900460ff16155b15610688576001600660006101000a81548160ff02191690831515021790555042600181905550423373ffffffffffffffffffffffffffffffffffffffff16600660019054906101000a900461ffff1661ffff167fc63dcc5a036c89a62e23a83fdac71cedd57140864b5aa921a2c75e3e35f0347460405160405180910390a46006600181819054906101000a900461ffff168092919061066c90610d86565b91906101000a81548161ffff021916908361ffff160217905550505b60035434146106cc576040517f08c379a00000000000000000000000000000000000000000000000000000000081526004016106c390610dfc565b60405180910390fd5b34600560008282546106de9190610b4f565b92505081905550600660019054906101000a900461ffff1661ffff167fea61f367399071b63879043e3fa4c861645d18b94e40a3248e5e1031e43d3e04336040516107299190610b05565b60405180910390a2565b6000600154141580156107525750600660009054906101000a900460ff165b610791576040517f08c379a000000000000000000000000000000000000000000000000000000000815260040161078890610e68565b60405180910390fd5b600760003373ffffffffffffffffffffffffffffffffffffffff1673ffffffffffffffffffffffffffffffffffffffff168152602001908152602001600020548111156108765780600760003373ffffffffffffffffffffffffffffffffffffffff1673ffffffffffffffffffffffffffffffffffffffff16815260200190815260200160002081905550803373ffffffffffffffffffffffffffffffffffffffff16600660019054906101000a900461ffff1661ffff167f97bd9c91d6f65926734338aa4d7f72fd6c802f144353cf5dcb31de335377bbbd60405160405180910390a45b6002548111156109225733600460006101000a81548173ffffffffffffffffffffffffffffffffffffffff021916908373ffffffffffffffffffffffffffffffffffffffff16021790555080600281905550803373ffffffffffffffffffffffffffffffffffffffff16600660019054906101000a900461ffff1661ffff167f7a0f25b9f9b79eb670591367acaa3dbd423142599c95451a884f52a1ad7e97a260405160405180910390a45b50565b600660019054906101000a900461ffff1681565b60035481565b60025481565b600460009054906101000a900473ffffffffffffffffffffffffffffffffffffffff1681565b600080fd5b600073ffffffffffffffffffffffffffffffffffffffff82169050919050565b600061099b82610970565b9050919050565b6109ab81610990565b81146109b657600080fd5b50565b6000813590506109c8816109a2565b92915050565b6000602082840312156109e4576109e361096b565b5b60006109f2848285016109b9565b91505092915050565b6000819050919050565b610a0e816109fb565b82525050565b6000602082019050610a296000830184610a05565b92915050565b60008115159050919050565b610a4481610a2f565b82525050565b6000602082019050610a5f6000830184610a3b565b92915050565b610a6e816109fb565b8114610a7957600080fd5b50565b600081359050610a8b81610a65565b92915050565b600060208284031215610aa757610aa661096b565b5b6000610ab584828501610a7c565b91505092915050565b600061ffff82169050919050565b610ad581610abe565b82525050565b6000602082019050610af06000830184610acc565b92915050565b610aff81610990565b82525050565b6000602082019050610b1a6000830184610af6565b92915050565b7f4e487b7100000000000000000000000000000000000000000000000000000000600052601160045260246000fd5b6000610b5a826109fb565b9150610b65836109fb565b9250828201905080821115610b7d57610b7c610b20565b5b92915050565b600082825260208201905092915050565b7f47616d65206d75737420626520636c6f7365642e000000000000000000000000600082015250565b6000610bca601483610b83565b9150610bd582610b94565b602082019050919050565b60006020820190508181036000830152610bf981610bbd565b9050919050565b6000610c0b826109fb565b9150610c16836109fb565b9250828202610c24816109fb565b91508282048414831517610c3b57610c3a610b20565b5b5092915050565b7f477261636520706572696f6420666f72207468652077696e6e6572207374696c60008201527f6c2072756e6e696e672e00000000000000000000000000000000000000000000602082015250565b6000610c9e602a83610b83565b9150610ca982610c42565b604082019050919050565b60006020820190508181036000830152610ccd81610c91565b9050919050565b600081905092915050565b50565b6000610cef600083610cd4565b9150610cfa82610cdf565b600082019050919050565b6000610d1082610ce2565b9150819050919050565b7f4661696c656420746f2073656e64204574686572000000000000000000000000600082015250565b6000610d50601483610b83565b9150610d5b82610d1a565b602082019050919050565b60006020820190508181036000830152610d7f81610d43565b9050919050565b6000610d9182610abe565b915061ffff8203610da557610da4610b20565b5b600182019050919050565b7f4f6e6c7920746865206665652073686f756c642062652070617965642e000000600082015250565b6000610de6601d83610b83565b9150610df182610db0565b602082019050919050565b60006020820190508181036000830152610e1581610dd9565b9050919050565b7f47616d65206d757374206265206f70656e2e0000000000000000000000000000600082015250565b6000610e52601283610b83565b9150610e5d82610e1c565b602082019050919050565b60006020820190508181036000830152610e8181610e45565b905091905056fea26469706673582212206fee37fd7a13f3228ab13fe253205ca73f9e98280793f29930149de67a139dcf64736f6c63430008120033",
  "linkReferences": {},
  "deployedLinkReferences": {}
}